{
  "abi": [
    {
      "inputs": [],
      "name": "LIMIT_ORDER",
      "outputs": [
        {
          "internalType": "uint256",
          "name": "",
          "type": "uint256"
        }
      ],
      "stateMutability": "view",
      "type": "function"
    },
    {
      "inputs": [],
      "name": "MARKET_ORDER",
      "outputs": [
        {
          "internalType": "uint256",
          "name": "",
          "type": "uint256"
        }
      ],
      "stateMutability": "view",
      "type": "function"
    },
    {
      "inputs": [],
      "name": "STOP_LOSS_ORDER",
      "outputs": [
        {
          "internalType": "uint256",
          "name": "",
          "type": "uint256"
        }
      ],
      "stateMutability": "view",
      "type": "function"
    }
  ],
  "bytecode": {
    "object": "0x60a9610039600b82828239805160001a60731461002c57634e487b7160e01b600052600060045260246000fd5b30600052607381538281f3fe730000000000000000000000000000000000000000301460806040526004361060475760003560e01c8063463e7e3314604c578063e118e088146065578063fd98e1a714606c575b600080fd5b6053600181565b60405190815260200160405180910390f35b6053600081565b605360028156fea26469706673582212206f4ac2e99ac85a749895344d3d36424ba689c94e488612d9097d6acb0f8f070a64736f6c63430008140033",
    "linkReferences": {}
  },
  "methodIdentifiers": {
    "LIMIT_ORDER()": "463e7e33",
    "MARKET_ORDER()": "e118e088",
    "STOP_LOSS_ORDER()": "fd98e1a7"
  },
  "id": 5
}