{
  "abi": [
    {
      "inputs": [],
      "name": "BroadcasNotAllowed",
      "type": "error"
    },
    {
      "inputs": [],
      "name": "JsonAuthentificationError",
      "type": "error"
    },
    {
      "inputs": [
        {
          "internalType": "bytes32",
          "name": "jsonHash",
          "type": "bytes32"
        }
      ],
      "name": "broadcast",
      "outputs": [],
      "stateMutability": "nonpayable",
      "type": "function"
    },
    {
      "inputs": [
        {
          "internalType": "bytes",
          "name": "json",
          "type": "bytes"
        },
        {
          "internalType": "bytes",
          "name": "signature",
          "type": "bytes"
        }
      ],
      "name": "depositFunds",
      "outputs": [],
      "stateMutability": "nonpayable",
      "type": "function"
    }
  ],
  "bytecode": {
    "object": "0x608060405234801561001057600080fd5b506101b6806100206000396000f3fe608060405234801561001057600080fd5b50600436106100365760003560e01c80632596f4fc1461003b578063f65e61bc1461004e575b600080fd5b61004c610049366004610060565b50565b005b61004c61005c36600461011c565b5050565b60006020828403121561007257600080fd5b5035919050565b634e487b7160e01b600052604160045260246000fd5b600082601f8301126100a057600080fd5b813567ffffffffffffffff808211156100bb576100bb610079565b604051601f8301601f19908116603f011681019082821181831017156100e3576100e3610079565b816040528381528660208588010111156100fc57600080fd5b836020870160208301376000602085830101528094505050505092915050565b6000806040838503121561012f57600080fd5b823567ffffffffffffffff8082111561014757600080fd5b6101538683870161008f565b9350602085013591508082111561016957600080fd5b506101768582860161008f565b915050925092905056fea264697066735822122085d3bfb70aafdeff2b006a0e0d6a72402ebd78289978257137d9042d43edf3ed64736f6c63430008140033",
    "linkReferences": {}
  },
  "methodIdentifiers": {
    "broadcast(bytes32)": "2596f4fc",
    "depositFunds(bytes,bytes)": "f65e61bc"
  },
  "id": 11
}