{
  "abi": [
    {
      "inputs": [
        {
          "internalType": "string",
          "name": "_name",
          "type": "string"
        },
        {
          "internalType": "string",
          "name": "_version",
          "type": "string"
        },
        {
          "internalType": "address",
          "name": "mailboxAddress",
          "type": "address"
        }
      ],
      "stateMutability": "nonpayable",
      "type": "constructor"
    },
    {
      "inputs": [
        {
          "internalType": "bytes32",
          "name": "_jsonHash",
          "type": "bytes32"
        }
      ],
      "name": "CompleteOrderOnInexistentOrderError",
      "type": "error"
    },
    {
      "inputs": [],
      "name": "DestinationChainSameAsSourceError",
      "type": "error"
    },
    {
      "inputs": [],
      "name": "ECDSAInvalidSignature",
      "type": "error"
    },
    {
      "inputs": [
        {
          "internalType": "uint256",
          "name": "length",
          "type": "uint256"
        }
      ],
      "name": "ECDSAInvalidSignatureLength",
      "type": "error"
    },
    {
      "inputs": [
        {
          "internalType": "bytes32",
          "name": "s",
          "type": "bytes32"
        }
      ],
      "name": "ECDSAInvalidSignatureS",
      "type": "error"
    },
    {
      "inputs": [],
      "name": "InvalidShortString",
      "type": "error"
    },
    {
      "inputs": [
        {
          "internalType": "uint256",
          "name": "_chainId",
          "type": "uint256"
        }
      ],
      "name": "InvalidSourceChainError",
      "type": "error"
    },
    {
      "inputs": [
        {
          "internalType": "address",
          "name": "_signer",
          "type": "address"
        },
        {
          "internalType": "address",
          "name": "_sourceAddress",
          "type": "address"
        }
      ],
      "name": "JsonAuthentificationError",
      "type": "error"
    },
    {
      "inputs": [
        {
          "internalType": "bytes32",
          "name": "_jsonHash",
          "type": "bytes32"
        }
      ],
      "name": "OrderAlreadySubmittedError",
      "type": "error"
    },
    {
      "inputs": [
        {
          "internalType": "uint256",
          "name": "_blockTimestamp",
          "type": "uint256"
        }
      ],
      "name": "OrderExpired",
      "type": "error"
    },
    {
      "inputs": [
        {
          "internalType": "bytes32",
          "name": "_jsonHash",
          "type": "bytes32"
        }
      ],
      "name": "RestituateOrderOnInexistentOrderError",
      "type": "error"
    },
    {
      "inputs": [
        {
          "internalType": "bytes32",
          "name": "_jsonHash",
          "type": "bytes32"
        }
      ],
      "name": "RestituateOrderOnNonExpiredOrderError",
      "type": "error"
    },
    {
      "inputs": [
        {
          "internalType": "uint256",
          "name": "_stakeAmount",
          "type": "uint256"
        }
      ],
      "name": "StakeInsufficientError",
      "type": "error"
    },
    {
      "inputs": [
        {
          "internalType": "string",
          "name": "str",
          "type": "string"
        }
      ],
      "name": "StringTooLong",
      "type": "error"
    },
    {
      "inputs": [],
      "name": "incorrectSender",
      "type": "error"
    },
    {
      "anonymous": false,
      "inputs": [],
      "name": "EIP712DomainChanged",
      "type": "event"
    },
    {
      "anonymous": false,
      "inputs": [
        {
          "indexed": false,
          "internalType": "address",
          "name": "_solverAddress",
          "type": "address"
        },
        {
          "indexed": false,
          "internalType": "bytes32",
          "name": "_jsonHash",
          "type": "bytes32"
        }
      ],
      "name": "FundReleased",
      "type": "event"
    },
    {
      "anonymous": false,
      "inputs": [
        {
          "indexed": false,
          "internalType": "uint256",
          "name": "_expirationTimestamp",
          "type": "uint256"
        },
        {
          "indexed": false,
          "internalType": "bytes32",
          "name": "_jsonHash",
          "type": "bytes32"
        }
      ],
      "name": "FundsEscrowed",
      "type": "event"
    },
    {
      "anonymous": false,
      "inputs": [
        {
          "indexed": false,
          "internalType": "address",
          "name": "_sourceAddress",
          "type": "address"
        },
        {
          "indexed": false,
          "internalType": "address",
          "name": "_sourceTokenAddress",
          "type": "address"
        },
        {
          "indexed": false,
          "internalType": "uint256",
          "name": "_amountSourceToken",
          "type": "uint256"
        },
        {
          "indexed": false,
          "internalType": "bytes32",
          "name": "_jsonHash",
          "type": "bytes32"
        }
      ],
      "name": "FundsRestituated",
      "type": "event"
    },
    {
      "anonymous": false,
      "inputs": [
        {
          "indexed": true,
          "internalType": "address",
          "name": "user",
          "type": "address"
        },
        {
          "indexed": true,
          "internalType": "address",
          "name": "newOwner",
          "type": "address"
        }
      ],
      "name": "OwnershipTransferred",
      "type": "event"
    },
    {
      "anonymous": false,
      "inputs": [],
      "name": "SignatureVerified",
      "type": "event"
    },
    {
      "inputs": [],
      "name": "eip712Domain",
      "outputs": [
        {
          "internalType": "bytes1",
          "name": "fields",
          "type": "bytes1"
        },
        {
          "internalType": "string",
          "name": "name",
          "type": "string"
        },
        {
          "internalType": "string",
          "name": "version",
          "type": "string"
        },
        {
          "internalType": "uint256",
          "name": "chainId",
          "type": "uint256"
        },
        {
          "internalType": "address",
          "name": "verifyingContract",
          "type": "address"
        },
        {
          "internalType": "bytes32",
          "name": "salt",
          "type": "bytes32"
        },
        {
          "internalType": "uint256[]",
          "name": "extensions",
          "type": "uint256[]"
        }
      ],
      "stateMutability": "view",
      "type": "function"
    },
    {
      "inputs": [
        {
          "internalType": "bytes",
          "name": "_json",
          "type": "bytes"
        },
        {
          "internalType": "bytes",
          "name": "_signature",
          "type": "bytes"
        }
      ],
      "name": "escrowFunds",
      "outputs": [],
      "stateMutability": "payable",
      "type": "function"
    },
    {
      "inputs": [
        {
          "internalType": "uint32",
          "name": "origin",
          "type": "uint32"
        },
        {
          "internalType": "bytes32",
          "name": "sender",
          "type": "bytes32"
        },
        {
          "internalType": "bytes",
          "name": "data",
          "type": "bytes"
        }
      ],
      "name": "handle",
      "outputs": [],
      "stateMutability": "payable",
      "type": "function"
    },
    {
      "inputs": [],
      "name": "owner",
      "outputs": [
        {
          "internalType": "address",
          "name": "",
          "type": "address"
        }
      ],
      "stateMutability": "view",
      "type": "function"
    },
    {
      "inputs": [
        {
          "internalType": "bytes32",
          "name": "_jsonHash",
          "type": "bytes32"
        }
      ],
      "name": "restituateFunds",
      "outputs": [],
      "stateMutability": "nonpayable",
      "type": "function"
    },
    {
      "inputs": [
        {
          "internalType": "address",
          "name": "mailboxAddress",
          "type": "address"
        }
      ],
      "name": "setMailboxAddress",
      "outputs": [],
      "stateMutability": "nonpayable",
      "type": "function"
    },
    {
      "inputs": [
        {
          "internalType": "uint256",
          "name": "chainId",
          "type": "uint256"
        },
        {
          "internalType": "address",
          "name": "sender",
          "type": "address"
        }
      ],
      "name": "setSenderForChainId",
      "outputs": [],
      "stateMutability": "nonpayable",
      "type": "function"
    },
    {
      "inputs": [
        {
          "internalType": "address",
          "name": "newOwner",
          "type": "address"
        }
      ],
      "name": "transferOwnership",
      "outputs": [],
      "stateMutability": "nonpayable",
      "type": "function"
    },
    {
      "inputs": [
        {
          "internalType": "bytes",
          "name": "_json",
          "type": "bytes"
        },
        {
          "internalType": "bytes",
          "name": "_signature",
          "type": "bytes"
        }
      ],
      "name": "verifySignature",
      "outputs": [
        {
          "internalType": "address",
          "name": "",
          "type": "address"
        },
        {
          "internalType": "bytes32",
          "name": "",
          "type": "bytes32"
        }
      ],
      "stateMutability": "view",
      "type": "function"
    }
  ],
  "bytecode": {
    "object": "0x6101606040523480156200001257600080fd5b5060405162001b1d38038062001b1d833981016040819052620000359162000356565b8033848481816200004882600062000204565b610120526200005981600162000204565b61014052815160208084019190912060e052815190820120610100524660a052620000e760e05161010051604080517f8b73c3c69bb8fe3d512ecc4cf759cc79239f7b179b0ffacaa9a75d522b39400f60208201529081019290925260608201524660808201523060a082015260009060c00160405160208183030381529060405280519060200120905090565b60805250503060c0525050600280546001600160a01b0319166001600160a01b0383169081179091556040516000907f8be0079c531659141344cd1fd0a4f28419497f9722a3daafe3b4186f6b6457e0908290a350600380546001600160a01b0319166001600160a01b039283161790556040805160c0808201835260008083526020808401828152848601838152606080870185815260808089018781528a51808c018c528881528088019890985260a0808b019889528b519a518b89015295518a8c015293518b169289019290925251891690870152519085015290518051909516918301919091529283015160e0808301919091528251808303909101815261010090910190915280519101206005555062000598915050565b600060208351101562000224576200021c836200023d565b905062000237565b8162000231848262000472565b5060ff90505b92915050565b600080829050601f8151111562000274578260405163305a27a960e01b81526004016200026b91906200053e565b60405180910390fd5b8051620002818262000573565b179392505050565b634e487b7160e01b600052604160045260246000fd5b60005b83811015620002bc578181015183820152602001620002a2565b50506000910152565b600082601f830112620002d757600080fd5b81516001600160401b0380821115620002f457620002f462000289565b604051601f8301601f19908116603f011681019082821181831017156200031f576200031f62000289565b816040528381528660208588010111156200033957600080fd5b6200034c8460208301602089016200029f565b9695505050505050565b6000806000606084860312156200036c57600080fd5b83516001600160401b03808211156200038457600080fd5b6200039287838801620002c5565b94506020860151915080821115620003a957600080fd5b50620003b886828701620002c5565b604086015190935090506001600160a01b0381168114620003d857600080fd5b809150509250925092565b600181811c90821680620003f857607f821691505b6020821081036200041957634e487b7160e01b600052602260045260246000fd5b50919050565b601f8211156200046d57600081815260208120601f850160051c81016020861015620004485750805b601f850160051c820191505b81811015620004695782815560010162000454565b5050505b505050565b81516001600160401b038111156200048e576200048e62000289565b620004a6816200049f8454620003e3565b846200041f565b602080601f831160018114620004de5760008415620004c55750858301515b600019600386901b1c1916600185901b17855562000469565b600085815260208120601f198616915b828110156200050f57888601518255948401946001909101908401620004ee565b50858210156200052e5787850151600019600388901b60f8161c191681555b5050505050600190811b01905550565b60208152600082518060208401526200055f8160408501602087016200029f565b601f01601f19169190910160400192915050565b80516020808301519190811015620004195760001960209190910360031b1b16919050565b60805160a05160c05160e05161010051610120516101405161152a620005f3600039600061099b0152600061096901526000610a9b01526000610a73015260006109ce015260006109f801526000610a22015261152a6000f3fe6080604052600436106100865760003560e01c806359785c741161005957806359785c74146101245780637a3c7a1c1461013757806384b0196e146101575780638da5cb5b1461017f578063f2fde38b146101b757600080fd5b8063015970991461008b5780631818a81d146100ad57806331f59122146100cd57806356d5d47514610111575b600080fd5b34801561009757600080fd5b506100ab6100a6366004610def565b6101d7565b005b3480156100b957600080fd5b506100ab6100c8366004610e13565b61022c565b3480156100d957600080fd5b506100ed6100e8366004610f32565b610284565b604080516001600160a01b0390931683526020830191909152015b60405180910390f35b6100ab61011f366004610fa8565b610316565b6100ab610132366004610f32565b610391565b34801561014357600080fd5b506100ab610152366004611031565b6104c6565b34801561016357600080fd5b5061016c610662565b604051610108979695949392919061109a565b34801561018b57600080fd5b5060025461019f906001600160a01b031681565b6040516001600160a01b039091168152602001610108565b3480156101c357600080fd5b506100ab6101d2366004610def565b6106a8565b6002546001600160a01b0316331461020a5760405162461bcd60e51b815260040161020190611130565b60405180910390fd5b600380546001600160a01b0319166001600160a01b0392909216919091179055565b6002546001600160a01b031633146102565760405162461bcd60e51b815260040161020190611130565b60009182526004602052604090912080546001600160a01b0319166001600160a01b03909216919091179055565b60008060006102fc60405180610160016040528061013d81526020016113b861013d91396040516020016102b89190611156565b60408051601f19818403018152828252805160209182012089518a83012091840152908201526060016040516020818303038152906040528051906020012061071e565b9050600061030a8286610751565b96919550909350505050565b6003546001600160a01b0316331461032d57600080fd5b63ffffffff841660009081526004602052604090205483906001600160a01b0380831691161461037057604051635492199960e01b815260040160405180910390fd5b600061037e83850185611031565b90506103898161077b565b505050505050565b6000828060200190518101906103a791906111d1565b6040516318fac89160e11b8152909150600090819030906331f59122906103d490889088906004016112e9565b6040805180830381865afa1580156103f0573d6000803e3d6000fd5b505050506040513d601f19601f820116820180604052508101906104149190611317565b915091508261010001516001600160a01b0316826001600160a01b031614610469576101008301516040516351d1cd9560e11b81526001600160a01b0380851660048301529091166024820152604401610201565b826000015163ffffffff16461461049e5782516040516398226d3760e01b815263ffffffff9091166004820152602401610201565b60405163deb2c90960e01b815260040160405180910390fd5b60405180910390a15050505050565b60055481036104eb576040516317b6ea7760e01b815260048101829052602401610201565b600081815260066020818152604092839020835160c08101855281548152600182015481840190815260028301546001600160a01b0390811683880152600384015481166060840152600484015460808401528651808801909752600584015416865291909301549184019190915260a08201929092529051421161058657604051630257c65160e21b815260048101839052602401610201565b6040818101516060830151608084015192516323b872dd60e01b81523060048201526001600160a01b03808416602483015260448201859052929391928316906323b872dd906064016020604051808303816000875af11580156105ee573d6000803e3d6000fd5b505050506040513d601f19601f820116820180604052508101906106129190611345565b50604080516001600160a01b03808616825284166020820152908101829052606081018690527f69bc163e958f931b649348999a575462ec371ab297549a26ba3b7a65d5c1914a906080016104b7565b600060608060008060006060610676610962565b61067e610994565b60408051600080825260208201909252600f60f81b9b939a50919850469750309650945092509050565b6002546001600160a01b031633146106d25760405162461bcd60e51b815260040161020190611130565b600280546001600160a01b0319166001600160a01b03831690811790915560405133907f8be0079c531659141344cd1fd0a4f28419497f9722a3daafe3b4186f6b6457e090600090a350565b600061074b61072b6109c1565b8360405161190160f01b8152600281019290925260228201526042902090565b92915050565b6000806000806107618686610aec565b9250925092506107718282610b39565b5090949350505050565b60055481036107a05760405163e14076eb60e01b815260048101829052602401610201565b6000818152600660208181526040808420815160c0810183528154815260018201548185015260028201546001600160a01b03908116828501526003830154811660608301526004830154608083015283518085018552600584015482168152929095015493820193845260a081018290529051925191519094929384169282156108fc02929190818181858888f19350505050158015610845573d6000803e3d6000fd5b50606082015160808301516040516323b872dd60e01b81523060048201526001600160a01b03848116602483015260448201929092529116906323b872dd906064016020604051808303816000875af11580156108a6573d6000803e3d6000fd5b505050506040513d601f19601f820116820180604052508101906108ca9190611345565b506000838152600660208181526040808420848155600181018590556002810180546001600160a01b0319908116909155600382018054821690556004820186905560058201805490911690559092019290925580516001600160a01b03841681529182018590527f2a774c72b5bdbfdf21e5c69bb2b5bdf1e41fc0e91c667b121f03ec1f3e036f40910160405180910390a1505050565b606061098f7f00000000000000000000000000000000000000000000000000000000000000006000610bf6565b905090565b606061098f7f00000000000000000000000000000000000000000000000000000000000000006001610bf6565b6000306001600160a01b037f000000000000000000000000000000000000000000000000000000000000000016148015610a1a57507f000000000000000000000000000000000000000000000000000000000000000046145b15610a4457507f000000000000000000000000000000000000000000000000000000000000000090565b61098f604080517f8b73c3c69bb8fe3d512ecc4cf759cc79239f7b179b0ffacaa9a75d522b39400f60208201527f0000000000000000000000000000000000000000000000000000000000000000918101919091527f000000000000000000000000000000000000000000000000000000000000000060608201524660808201523060a082015260009060c00160405160208183030381529060405280519060200120905090565b60008060008351604103610b265760208401516040850151606086015160001a610b1888828585610ca1565b955095509550505050610b32565b50508151600091506002905b9250925092565b6000826003811115610b4d57610b4d611367565b03610b56575050565b6001826003811115610b6a57610b6a611367565b03610b885760405163f645eedf60e01b815260040160405180910390fd5b6002826003811115610b9c57610b9c611367565b03610bbd5760405163fce698f760e01b815260048101829052602401610201565b6003826003811115610bd157610bd1611367565b03610bf2576040516335e2f38360e21b815260048101829052602401610201565b5050565b606060ff8314610c1057610c0983610d70565b905061074b565b818054610c1c9061137d565b80601f0160208091040260200160405190810160405280929190818152602001828054610c489061137d565b8015610c955780601f10610c6a57610100808354040283529160200191610c95565b820191906000526020600020905b815481529060010190602001808311610c7857829003601f168201915b5050505050905061074b565b600080807f7fffffffffffffffffffffffffffffff5d576e7357a4501ddfe92f46681b20a0841115610cdc5750600091506003905082610d66565b604080516000808252602082018084528a905260ff891692820192909252606081018790526080810186905260019060a0016020604051602081039080840390855afa158015610d30573d6000803e3d6000fd5b5050604051601f1901519150506001600160a01b038116610d5c57506000925060019150829050610d66565b9250600091508190505b9450945094915050565b60606000610d7d83610daf565b604080516020808252818301909252919250600091906020820181803683375050509182525060208101929092525090565b600060ff8216601f81111561074b57604051632cd44ac360e21b815260040160405180910390fd5b6001600160a01b0381168114610dec57600080fd5b50565b600060208284031215610e0157600080fd5b8135610e0c81610dd7565b9392505050565b60008060408385031215610e2657600080fd5b823591506020830135610e3881610dd7565b809150509250929050565b634e487b7160e01b600052604160045260246000fd5b6040516101a0810167ffffffffffffffff81118282101715610e7d57610e7d610e43565b60405290565b604051601f8201601f1916810167ffffffffffffffff81118282101715610eac57610eac610e43565b604052919050565b600067ffffffffffffffff821115610ece57610ece610e43565b50601f01601f191660200190565b600082601f830112610eed57600080fd5b8135610f00610efb82610eb4565b610e83565b818152846020838601011115610f1557600080fd5b816020850160208301376000918101602001919091529392505050565b60008060408385031215610f4557600080fd5b823567ffffffffffffffff80821115610f5d57600080fd5b610f6986838701610edc565b93506020850135915080821115610f7f57600080fd5b50610f8c85828601610edc565b9150509250929050565b63ffffffff81168114610dec57600080fd5b60008060008060608587031215610fbe57600080fd5b8435610fc981610f96565b935060208501359250604085013567ffffffffffffffff80821115610fed57600080fd5b818701915087601f83011261100157600080fd5b81358181111561101057600080fd5b88602082850101111561102257600080fd5b95989497505060200194505050565b60006020828403121561104357600080fd5b5035919050565b60005b8381101561106557818101518382015260200161104d565b50506000910152565b6000815180845261108681602086016020860161104a565b601f01601f19169290920160200192915050565b60ff60f81b881681526000602060e0818401526110ba60e084018a61106e565b83810360408501526110cc818a61106e565b606085018990526001600160a01b038816608086015260a0850187905284810360c0860152855180825283870192509083019060005b8181101561111e57835183529284019291840191600101611102565b50909c9b505050505050505050505050565b6020808252600c908201526b15539055551213d49256915160a21b604082015260600190565b602081526000610e0c602083018461106e565b805161117481610f96565b919050565b805161117481610dd7565b600082601f83011261119557600080fd5b81516111a3610efb82610eb4565b8181528460208386010111156111b857600080fd5b6111c982602083016020870161104a565b949350505050565b6000602082840312156111e357600080fd5b815167ffffffffffffffff808211156111fb57600080fd5b908301906101a0828603121561121057600080fd5b611218610e59565b61122183611169565b815261122f60208401611169565b602082015260408301516040820152606083015160608201526080830151608082015260a083015160a082015260c083015160c082015260e083015160e082015261010061127e818501611179565b90820152610120611290848201611179565b908201526101406112a2848201611179565b908201526101606112b4848201611179565b9082015261018083810151838111156112cc57600080fd5b6112d888828701611184565b918301919091525095945050505050565b6040815260006112fc604083018561106e565b828103602084015261130e818561106e565b95945050505050565b6000806040838503121561132a57600080fd5b825161133581610dd7565b6020939093015192949293505050565b60006020828403121561135757600080fd5b81518015158114610e0c57600080fd5b634e487b7160e01b600052602160045260246000fd5b600181811c9082168061139157607f821691505b6020821081036113b157634e487b7160e01b600052602260045260246000fd5b5091905056fe46756c6c4f726465722875696e74333220736f75726365436861696e49642c75696e7433322064657374696e6174696f6e436861696e49642c75696e74323536206e6f6e63652c75696e7432353620616d6f756e74536f75726365546f6b656e2c75696e74323536206d696e44657374696e6174696f6e546f6b656e416d6f756e742c75696e743235362065787069726174696f6e54696d657374616d702c75696e74323536207374616b65416d6f756e742c75696e74323536206f72646572496e6465782c6164647265737320736f75726365416464726573732c616464726573732064657374696e6174696f6e416464726573732c6164647265737320736f75726365546f6b656e416464726573732c616464726573732064657374696e6174696f6e546f6b656e416464726573732c6279746573206461746129a26469706673582212206c5a2ba3c919da866d9aa31b954dd2a24994265597f286998bf8d5eff91e0c2964736f6c63430008140033",
    "linkReferences": {}
  },
  "methodIdentifiers": {
    "eip712Domain()": "84b0196e",
    "escrowFunds(bytes,bytes)": "59785c74",
    "handle(uint32,bytes32,bytes)": "56d5d475",
    "owner()": "8da5cb5b",
    "restituateFunds(bytes32)": "7a3c7a1c",
    "setMailboxAddress(address)": "01597099",
    "setSenderForChainId(uint256,address)": "1818a81d",
    "transferOwnership(address)": "f2fde38b",
    "verifySignature(bytes,bytes)": "31f59122"
  },
  "id": 35
}