{
  "abi": [
    {
      "inputs": [
        {
          "internalType": "string",
          "name": "_name",
          "type": "string"
        },
        {
          "internalType": "string",
          "name": "_version",
          "type": "string"
        },
        {
          "internalType": "address",
          "name": "_mailboxAddress",
          "type": "address"
        }
      ],
      "stateMutability": "nonpayable",
      "type": "constructor"
    },
    {
      "inputs": [],
      "name": "BroadcasNotAllowed",
      "type": "error"
    },
    {
      "inputs": [],
      "name": "ECDSAInvalidSignature",
      "type": "error"
    },
    {
      "inputs": [
        {
          "internalType": "uint256",
          "name": "length",
          "type": "uint256"
        }
      ],
      "name": "ECDSAInvalidSignatureLength",
      "type": "error"
    },
    {
      "inputs": [
        {
          "internalType": "bytes32",
          "name": "s",
          "type": "bytes32"
        }
      ],
      "name": "ECDSAInvalidSignatureS",
      "type": "error"
    },
    {
      "inputs": [],
      "name": "InvalidShortString",
      "type": "error"
    },
    {
      "inputs": [
        {
          "internalType": "address",
          "name": "_signer",
          "type": "address"
        },
        {
          "internalType": "address",
          "name": "_sourceAddress",
          "type": "address"
        }
      ],
      "name": "JsonAuthentificationError",
      "type": "error"
    },
    {
      "inputs": [
        {
          "internalType": "string",
          "name": "str",
          "type": "string"
        }
      ],
      "name": "StringTooLong",
      "type": "error"
    },
    {
      "anonymous": false,
      "inputs": [
        {
          "indexed": false,
          "internalType": "bytes32",
          "name": "message",
          "type": "bytes32"
        }
      ],
      "name": "Broadcast",
      "type": "event"
    },
    {
      "anonymous": false,
      "inputs": [],
      "name": "EIP712DomainChanged",
      "type": "event"
    },
    {
      "anonymous": false,
      "inputs": [
        {
          "indexed": true,
          "internalType": "address",
          "name": "user",
          "type": "address"
        },
        {
          "indexed": true,
          "internalType": "address",
          "name": "newOwner",
          "type": "address"
        }
      ],
      "name": "OwnershipTransferred",
      "type": "event"
    },
    {
      "anonymous": false,
      "inputs": [],
      "name": "SignatureVerified",
      "type": "event"
    },
    {
      "inputs": [
        {
          "internalType": "bytes32",
          "name": "_jsonHash",
          "type": "bytes32"
        }
      ],
      "name": "broadcast",
      "outputs": [],
      "stateMutability": "payable",
      "type": "function"
    },
    {
      "inputs": [
        {
          "internalType": "bytes",
          "name": "_json",
          "type": "bytes"
        },
        {
          "internalType": "bytes",
          "name": "_signature",
          "type": "bytes"
        }
      ],
      "name": "depositFunds",
      "outputs": [],
      "stateMutability": "nonpayable",
      "type": "function"
    },
    {
      "inputs": [],
      "name": "eip712Domain",
      "outputs": [
        {
          "internalType": "bytes1",
          "name": "fields",
          "type": "bytes1"
        },
        {
          "internalType": "string",
          "name": "name",
          "type": "string"
        },
        {
          "internalType": "string",
          "name": "version",
          "type": "string"
        },
        {
          "internalType": "uint256",
          "name": "chainId",
          "type": "uint256"
        },
        {
          "internalType": "address",
          "name": "verifyingContract",
          "type": "address"
        },
        {
          "internalType": "bytes32",
          "name": "salt",
          "type": "bytes32"
        },
        {
          "internalType": "uint256[]",
          "name": "extensions",
          "type": "uint256[]"
        }
      ],
      "stateMutability": "view",
      "type": "function"
    },
    {
      "inputs": [
        {
          "internalType": "bytes32",
          "name": "_jsonHash",
          "type": "bytes32"
        }
      ],
      "name": "isCompleted",
      "outputs": [
        {
          "internalType": "bool",
          "name": "",
          "type": "bool"
        }
      ],
      "stateMutability": "view",
      "type": "function"
    },
    {
      "inputs": [
        {
          "internalType": "bytes32",
          "name": "",
          "type": "bytes32"
        }
      ],
      "name": "orderCompleted",
      "outputs": [
        {
          "internalType": "uint256",
          "name": "",
          "type": "uint256"
        }
      ],
      "stateMutability": "view",
      "type": "function"
    },
    {
      "inputs": [],
      "name": "owner",
      "outputs": [
        {
          "internalType": "address",
          "name": "",
          "type": "address"
        }
      ],
      "stateMutability": "view",
      "type": "function"
    },
    {
      "inputs": [
        {
          "internalType": "address",
          "name": "mailboxAddress",
          "type": "address"
        }
      ],
      "name": "setMailboxAddress",
      "outputs": [],
      "stateMutability": "nonpayable",
      "type": "function"
    },
    {
      "inputs": [
        {
          "internalType": "uint256",
          "name": "chainId",
          "type": "uint256"
        },
        {
          "internalType": "address",
          "name": "receiver",
          "type": "address"
        }
      ],
      "name": "setReceiverForChainId",
      "outputs": [],
      "stateMutability": "nonpayable",
      "type": "function"
    },
    {
      "inputs": [
        {
          "internalType": "address",
          "name": "newOwner",
          "type": "address"
        }
      ],
      "name": "transferOwnership",
      "outputs": [],
      "stateMutability": "nonpayable",
      "type": "function"
    },
    {
      "inputs": [
        {
          "internalType": "bytes",
          "name": "_json",
          "type": "bytes"
        },
        {
          "internalType": "bytes",
          "name": "_signature",
          "type": "bytes"
        }
      ],
      "name": "verifySignature",
      "outputs": [
        {
          "internalType": "address",
          "name": "",
          "type": "address"
        },
        {
          "internalType": "bytes32",
          "name": "",
          "type": "bytes32"
        }
      ],
      "stateMutability": "view",
      "type": "function"
    }
  ],
  "bytecode": {
    "object": "0x6101606040523480156200001257600080fd5b50604051620018fc380380620018fc83398101604081905262000035916200030b565b8033848481816200004882600062000151565b610120526200005981600162000151565b61014052815160208084019190912060e052815190820120610100524660a052620000e760e05161010051604080517f8b73c3c69bb8fe3d512ecc4cf759cc79239f7b179b0ffacaa9a75d522b39400f60208201529081019290925260608201524660808201523060a082015260009060c00160405160208183030381529060405280519060200120905090565b60805250503060c0525050600280546001600160a01b0319166001600160a01b0383169081179091556040516000907f8be0079c531659141344cd1fd0a4f28419497f9722a3daafe3b4186f6b6457e0908290a35062000147816200018a565b505050506200054d565b600060208351101562000171576200016983620001fb565b905062000184565b816200017e848262000427565b5060ff90505b92915050565b6002546001600160a01b03163314620001d95760405162461bcd60e51b815260206004820152600c60248201526b15539055551213d49256915160a21b60448201526064015b60405180910390fd5b600380546001600160a01b0319166001600160a01b0392909216919091179055565b600080829050601f8151111562000229578260405163305a27a960e01b8152600401620001d09190620004f3565b8051620002368262000528565b179392505050565b634e487b7160e01b600052604160045260246000fd5b60005b838110156200027157818101518382015260200162000257565b50506000910152565b600082601f8301126200028c57600080fd5b81516001600160401b0380821115620002a957620002a96200023e565b604051601f8301601f19908116603f01168101908282118183101715620002d457620002d46200023e565b81604052838152866020858801011115620002ee57600080fd5b6200030184602083016020890162000254565b9695505050505050565b6000806000606084860312156200032157600080fd5b83516001600160401b03808211156200033957600080fd5b62000347878388016200027a565b945060208601519150808211156200035e57600080fd5b506200036d868287016200027a565b604086015190935090506001600160a01b03811681146200038d57600080fd5b809150509250925092565b600181811c90821680620003ad57607f821691505b602082108103620003ce57634e487b7160e01b600052602260045260246000fd5b50919050565b601f8211156200042257600081815260208120601f850160051c81016020861015620003fd5750805b601f850160051c820191505b818110156200041e5782815560010162000409565b5050505b505050565b81516001600160401b038111156200044357620004436200023e565b6200045b8162000454845462000398565b84620003d4565b602080601f8311600181146200049357600084156200047a5750858301515b600019600386901b1c1916600185901b1785556200041e565b600085815260208120601f198616915b82811015620004c457888601518255948401946001909101908401620004a3565b5085821015620004e35787850151600019600388901b60f8161c191681555b5050505050600190811b01905550565b60208152600082518060208401526200051481604085016020870162000254565b601f01601f19169190910160400192915050565b80516020808301519190811015620003ce5760001960209190910360031b1b16919050565b60805160a05160c05160e051610100516101205161014051611354620005a86000396000610819015260006107e701526000610919015260006108f10152600061084c01526000610876015260006108a001526113546000f3fe6080604052600436106100915760003560e01c80638202859b116100595780638202859b1461018a57806384b0196e146101aa5780638da5cb5b146101d2578063f2fde38b1461020a578063f65e61bc1461022a57600080fd5b8063015970991461009657806312cab545146100b85780632596f4fc146100fd57806331f59122146101105780634833b0aa1461014f575b600080fd5b3480156100a257600080fd5b506100b66100b1366004610c6d565b61024a565b005b3480156100c457600080fd5b506100e86100d3366004610c91565b60009081526005602052604090205446141590565b60405190151581526020015b60405180910390f35b6100b661010b366004610c91565b61029f565b34801561011c57600080fd5b5061013061012b366004610d99565b61044a565b604080516001600160a01b0390931683526020830191909152016100f4565b34801561015b57600080fd5b5061017c61016a366004610c91565b60056020526000908152604090205481565b6040519081526020016100f4565b34801561019657600080fd5b506100b66101a5366004610dfd565b6104dc565b3480156101b657600080fd5b506101bf610534565b6040516100f49796959493929190610e7d565b3480156101de57600080fd5b506002546101f2906001600160a01b031681565b6040516001600160a01b0390911681526020016100f4565b34801561021657600080fd5b506100b6610225366004610c6d565b61057a565b34801561023657600080fd5b506100b6610245366004610d99565b6105f0565b6002546001600160a01b0316331461027d5760405162461bcd60e51b815260040161027490610f13565b60405180910390fd5b600380546001600160a01b0319166001600160a01b0392909216919091179055565b60008181526005602052604090205446146102cd57604051632340a3e760e01b815260040160405180910390fd5b6000816040516020016102e291815260200190565b6040516020818303038152906040529050600061030b8360009081526005602052604090205490565b600081815260046020819052604080832054600354915163138857a360e31b81529495506001600160a01b0390811694911691639c42bd189161035491879187918a9101610f39565b602060405180830381865afa158015610371573d6000803e3d6000fd5b505050506040513d601f19601f820116820180604052508101906103959190610f67565b60035460405163fa31de0160e01b81529192506001600160a01b03169063fa31de019083906103cc90879087908a90600401610f39565b60206040518083038185885af11580156103ea573d6000803e3d6000fd5b50505050506040513d601f19601f8201168201806040525081019061040f9190610f67565b506040518581527f8899289005e783b4fea70b251d96c92a2cd2a5d65404cb673ef68f56076821fa9060200160405180910390a15050505050565b60008060006104c260405180610160016040528061013d81526020016111e261013d913960405160200161047e9190610f80565b60408051601f19818403018152828252805160209182012089518a830120918401529082015260600160405160208183030381529060405280519060200120610783565b905060006104d082866107b6565b96919550909350505050565b6002546001600160a01b031633146105065760405162461bcd60e51b815260040161027490610f13565b60009182526004602052604090912080546001600160a01b0319166001600160a01b03909216919091179055565b6000606080600080600060606105486107e0565b610550610812565b60408051600080825260208201909252600f60f81b9b939a50919850469750309650945092509050565b6002546001600160a01b031633146105a45760405162461bcd60e51b815260040161027490610f13565b600280546001600160a01b0319166001600160a01b03831690811790915560405133907f8be0079c531659141344cd1fd0a4f28419497f9722a3daafe3b4186f6b6457e090600090a350565b6000828060200190518101906106069190611004565b6040516318fac89160e11b8152909150600090819030906331f5912290610633908890889060040161111c565b6040805180830381865afa15801561064f573d6000803e3d6000fd5b505050506040513d601f19601f820116820180604052508101906106739190611141565b61010085015191935091506001600160a01b03808416908216146106bd576040516351d1cd9560e11b81526001600160a01b03808516600483015282166024820152604401610274565b6040517f0b68aef87609ab8957b59bbbd29d4007772f0b8ba94cbf5c59cd04e165e1898a90600090a161016084015161012085015160808601516040516323b872dd60e01b81523360048201526001600160a01b03928316602482015260448101919091529116906323b872dd906064016020604051808303816000875af115801561074d573d6000803e3d6000fd5b505050506040513d601f19601f82011682018060405250810190610771919061116f565b5061077b8261029f565b505050505050565b60006107b061079061083f565b8360405161190160f01b8152600281019290925260228201526042902090565b92915050565b6000806000806107c6868661096a565b9250925092506107d682826109b7565b5090949350505050565b606061080d7f00000000000000000000000000000000000000000000000000000000000000006000610a74565b905090565b606061080d7f00000000000000000000000000000000000000000000000000000000000000006001610a74565b6000306001600160a01b037f00000000000000000000000000000000000000000000000000000000000000001614801561089857507f000000000000000000000000000000000000000000000000000000000000000046145b156108c257507f000000000000000000000000000000000000000000000000000000000000000090565b61080d604080517f8b73c3c69bb8fe3d512ecc4cf759cc79239f7b179b0ffacaa9a75d522b39400f60208201527f0000000000000000000000000000000000000000000000000000000000000000918101919091527f000000000000000000000000000000000000000000000000000000000000000060608201524660808201523060a082015260009060c00160405160208183030381529060405280519060200120905090565b600080600083516041036109a45760208401516040850151606086015160001a61099688828585610b1f565b9550955095505050506109b0565b50508151600091506002905b9250925092565b60008260038111156109cb576109cb611191565b036109d4575050565b60018260038111156109e8576109e8611191565b03610a065760405163f645eedf60e01b815260040160405180910390fd5b6002826003811115610a1a57610a1a611191565b03610a3b5760405163fce698f760e01b815260048101829052602401610274565b6003826003811115610a4f57610a4f611191565b03610a70576040516335e2f38360e21b815260048101829052602401610274565b5050565b606060ff8314610a8e57610a8783610bee565b90506107b0565b818054610a9a906111a7565b80601f0160208091040260200160405190810160405280929190818152602001828054610ac6906111a7565b8015610b135780601f10610ae857610100808354040283529160200191610b13565b820191906000526020600020905b815481529060010190602001808311610af657829003601f168201915b505050505090506107b0565b600080807f7fffffffffffffffffffffffffffffff5d576e7357a4501ddfe92f46681b20a0841115610b5a5750600091506003905082610be4565b604080516000808252602082018084528a905260ff891692820192909252606081018790526080810186905260019060a0016020604051602081039080840390855afa158015610bae573d6000803e3d6000fd5b5050604051601f1901519150506001600160a01b038116610bda57506000925060019150829050610be4565b9250600091508190505b9450945094915050565b60606000610bfb83610c2d565b604080516020808252818301909252919250600091906020820181803683375050509182525060208101929092525090565b600060ff8216601f8111156107b057604051632cd44ac360e21b815260040160405180910390fd5b6001600160a01b0381168114610c6a57600080fd5b50565b600060208284031215610c7f57600080fd5b8135610c8a81610c55565b9392505050565b600060208284031215610ca357600080fd5b5035919050565b634e487b7160e01b600052604160045260246000fd5b6040516101a0810167ffffffffffffffff81118282101715610ce457610ce4610caa565b60405290565b604051601f8201601f1916810167ffffffffffffffff81118282101715610d1357610d13610caa565b604052919050565b600067ffffffffffffffff821115610d3557610d35610caa565b50601f01601f191660200190565b600082601f830112610d5457600080fd5b8135610d67610d6282610d1b565b610cea565b818152846020838601011115610d7c57600080fd5b816020850160208301376000918101602001919091529392505050565b60008060408385031215610dac57600080fd5b823567ffffffffffffffff80821115610dc457600080fd5b610dd086838701610d43565b93506020850135915080821115610de657600080fd5b50610df385828601610d43565b9150509250929050565b60008060408385031215610e1057600080fd5b823591506020830135610e2281610c55565b809150509250929050565b60005b83811015610e48578181015183820152602001610e30565b50506000910152565b60008151808452610e69816020860160208601610e2d565b601f01601f19169290920160200192915050565b60ff60f81b881681526000602060e081840152610e9d60e084018a610e51565b8381036040850152610eaf818a610e51565b606085018990526001600160a01b038816608086015260a0850187905284810360c0860152855180825283870192509083019060005b81811015610f0157835183529284019291840191600101610ee5565b50909c9b505050505050505050505050565b6020808252600c908201526b15539055551213d49256915160a21b604082015260600190565b63ffffffff84168152826020820152606060408201526000610f5e6060830184610e51565b95945050505050565b600060208284031215610f7957600080fd5b5051919050565b602081526000610c8a6020830184610e51565b805163ffffffff81168114610fa757600080fd5b919050565b8051610fa781610c55565b600082601f830112610fc857600080fd5b8151610fd6610d6282610d1b565b818152846020838601011115610feb57600080fd5b610ffc826020830160208701610e2d565b949350505050565b60006020828403121561101657600080fd5b815167ffffffffffffffff8082111561102e57600080fd5b908301906101a0828603121561104357600080fd5b61104b610cc0565b61105483610f93565b815261106260208401610f93565b602082015260408301516040820152606083015160608201526080830151608082015260a083015160a082015260c083015160c082015260e083015160e08201526101006110b1818501610fac565b908201526101206110c3848201610fac565b908201526101406110d5848201610fac565b908201526101606110e7848201610fac565b9082015261018083810151838111156110ff57600080fd5b61110b88828701610fb7565b918301919091525095945050505050565b60408152600061112f6040830185610e51565b8281036020840152610f5e8185610e51565b6000806040838503121561115457600080fd5b825161115f81610c55565b6020939093015192949293505050565b60006020828403121561118157600080fd5b81518015158114610c8a57600080fd5b634e487b7160e01b600052602160045260246000fd5b600181811c908216806111bb57607f821691505b6020821081036111db57634e487b7160e01b600052602260045260246000fd5b5091905056fe46756c6c4f726465722875696e74333220736f75726365436861696e49642c75696e7433322064657374696e6174696f6e436861696e49642c75696e74323536206e6f6e63652c75696e7432353620616d6f756e74536f75726365546f6b656e2c75696e74323536206d696e44657374696e6174696f6e546f6b656e416d6f756e742c75696e743235362065787069726174696f6e54696d657374616d702c75696e74323536207374616b65416d6f756e742c75696e74323536206f72646572496e6465782c6164647265737320736f75726365416464726573732c616464726573732064657374696e6174696f6e416464726573732c6164647265737320736f75726365546f6b656e416464726573732c616464726573732064657374696e6174696f6e546f6b656e416464726573732c6279746573206461746129a2646970667358221220dc1e4f4882599163e9fb7c8ecd8c7041439018123f82a3255cc0be746b5a97a964736f6c63430008140033",
    "linkReferences": {}
  },
  "methodIdentifiers": {
    "broadcast(bytes32)": "2596f4fc",
    "depositFunds(bytes,bytes)": "f65e61bc",
    "eip712Domain()": "84b0196e",
    "isCompleted(bytes32)": "12cab545",
    "orderCompleted(bytes32)": "4833b0aa",
    "owner()": "8da5cb5b",
    "setMailboxAddress(address)": "01597099",
    "setReceiverForChainId(uint256,address)": "8202859b",
    "transferOwnership(address)": "f2fde38b",
    "verifySignature(bytes,bytes)": "31f59122"
  },
  "id": 33
}